:02000004080AE8
:10000000C8E101209D010A08552C0A084D2C0A0858
:10001000512C0A08110A0A08C5370A080000000016
:100020000000000000000000000000006D330A081E
:10003000150A0A0800000000592C0A0871330A0842
:10004000C1010A08C1010A08C1010A08C1010A0860
:10005000C1010A08C1010A08C1010A08C1010A0850
:10006000C1010A08C1010A08C1010A08C1010A0840
:10007000C1010A08C1010A08C1010A08C1010A0830
:10008000C1010A08C1010A08C1010A08C1010A0820
:10009000C1010A08C1010A08C1010A08C1010A0810
:1000A000C1010A08C1010A08C1010A08C1010A0800
:1000B000C1010A08C1010A0891330A08C1010A08EE
:1000C000C1010A08C1010A08C1010A08C1010A08E0
:1000D000C1010A0881360A08C1010A08D9360A088E
:1000E000C1010A08C1010A08C1010A08C1010A08C0
:1000F000C1010A08C1010A08C1010A08C1010A08B0
:10010000C1010A08C1010A08C1010A08C1010A089F
:10011000C1010A08C1010A08C1010A08C1010A088F
:10012000C1010A08C1010A08C1010A08C1010A087F
:10013000C1010A08C1010A08C1010A08C1010A086F
:10014000C1010A08C1010A08C1010A08C1010A085F
:10015000C1010A08C1010A08C1010A08C1010A084F
:10016000C1010A08C1010A08C1010A08C1010A083F
:10017000C1010A08C1010A08C1010A080000000003
:10018000C1010A08C1010A08DFF80CD000F090FB99
:1001900000480047AD2F0B08C8E10120094801685D
:1001A00041F4700101600848804708480047FEE7B5
:1001B000FEE7FEE7FEE7FEE7FEE7FEE7FEE7FEE717
:1001C000FEE7000088ED00E075330A0889010A089F
:1001D0002DE9F05F0546002092469B46884606467C
:1001E000814640241BE0284641464746224600F00F
:1001F00074F953465A46C01A914110D31146184615
:10020000224600F05BF92D1A67EB01084F462246A3
:100210000120002100F052F917EB00094E41201E89
:10022000A4F10104DFDC484631462A464346BDE8D6
:10023000F09F40EA01039B0703D009E008C9121FA1
:1002400008C0042AFAD203E011F8013B00F8013B90
:10025000521EF9D27047D2B201E000F8012B491EBC
:10026000FBD270470022F6E710B513460A46044653
:100270001946FFF7F0FF204610BD30B505462A4667
:100280000B4612F8010B13F8014B08B1A042F8D04D
:100290001CB1002802D06D1CF1E7284630BD10B516
:1002A000044604E00B7800F8013B03B1491C521EE0
:1002B000F8D2204610BDCAB2401E10F8011F8A4273
:1002C00002D00029F9D100207047421C10F8011B10
:1002D0000029FBD1801A704710B5002200E0521CA3
:1002E000835C8C5CA34201D1002BF8D1D8B2E1B27F
:1002F000401A10BDCBB203E00178994203D0401CF4
:10030000521EF9D20020704730B504460020034643
:1003100000E05B1C934203D2E05CCD5C401BF8D054
:1003200030BD034611F8012B00F8012B002AF9D14A
:100330001846704730B505460020034600E05B1CB8
:10034000934205D2EC5CC85C201A01D1002CF6D196
:1003500030BD70B5064616F013FE046805460A2245
:100360000021304600F0C9F82C6070BD70B506461B
:1003700016F006FE046805460A220021304600F009
:10038000BCF82C6070BD2DE9FE4F81EA030404F037
:10039000004421F0004100944FF0000B23F0004393
:1003A00050EA01045ED052EA03045BD0C3F30A545E
:1003B000C1F30A552C44A4F2F3340194A0FB025477
:1003C000C1F3130141F48011C3F3130343F4801309
:1003D00001FB024400FB034E840A970A44EA81545D
:1003E00047EA8357A4FB076802958D0A05FB07853A
:1003F0004FEA932C04FB0C542705029D4FEA065844
:1004000047EA1637B5EB08056EEB070C870E920E20
:1004100047EA811742EA8312A7FB0201B6EB0B0100
:1004200064EB00042B0D43EA0C335E1844EB1C50C4
:10043000DA465146E7FB0201C5F313044FEA0B33DA
:1004400043EA14534FEA0432019C43EA0603A4F141
:100450000C040294009CCDE900B400F095F803B0C0
:10046000BDE8F08F00200146F9E700F0004230F0CF
:1004700000400AD0C10D01F56071C0F3160042EAD8
:100480000151C208400711437047002001467047E0
:1004900030B50B46014600202022012409E021FA54
:1004A00002F59D4205D303FA02F5491B04FA02F551
:1004B0002844151EA2F10102F1DC30BD202A04DB24
:1004C000203A00FA02F1002070479140C2F1200367
:1004D00020FA03F3194390407047202A04DB203AA6
:1004E00021FA02F00021704721FA02F3D040C2F154
:1004F000200291400843194670472DE9F047914684
:100500000F4680460446002614F8015B2DB100F02A
:10051000F3F90068405DC007F6D12B2D02D02D2DD8
:1005200018D0641E4A463946204600F0E9F927B142
:100530003968A14201D1C7F8008071054FF002046B
:100540000BD54042002803DD16F01AFD0460A00719
:10055000BDE8F08746F48066E4E70028F8DA16F094
:100560000FFD04606FF00040F2E710B5141E73F148
:10057000000408DA401C41F1000192185B411A4363
:1005800001D120F0010010BD2DE9F04D92469B46AF
:1005900011B1B1FA81F202E0B0FA80F22032904655
:1005A000FFF78CFF04460F4640EA0A0041EA0B01C0
:1005B00053465A46084313D0114653EA010019D056
:1005C000C8F140025046FFF788FF05460E465046E8
:1005D00059464246FFF772FF084305D0012004E068
:1005E00020463946BDE8F08D0020054346EAE07616
:1005F0002C4337430A986305E40AA0EB0800002265
:10060000FD0A44EA47540A3002D500200146E9E7D2
:10061000010510196941DDE9084500196941BDE886
:10062000F04DA2E72DE9FE4F804681EA0300C00F9E
:100630000C46009021F0004123F00045B8EB020089
:10064000A94105D24046214690461C460B4602462B
:1006500023F00040104347D0270DC7F30A00C3F32F
:100660000A510290401A019040286BDAC3F313003C
:1006700040F4801B0098924620B10023D2EB030A7D
:1006800063EB0B0B01985946C0F140025046FFF74F
:1006900015FF06460D4650465946019A00F01AF9D4
:1006A00010EB08006141002487EA115284EAE773E5
:1006B0001A4340D0009A62B3019A012A4FEA0752C6
:1006C00015DC001B61EB02014FF0004202EA075209
:1006D000CDE90042001C41F5801132462B46FFF760
:1006E00053FF03B0BDE8F08F40462146F9E7001BF9
:1006F00061EB0201001C41F5801300185B412018DA
:10070000A2F5001747EB030140EAD570B6196D4119
:1007100011E06D084FEA360645EAC0754FEA075208
:10072000001B61EB0201001C41F5801149084FEAF2
:1007300030000019514132462B4603B0BDE8F04F5E
:10074000FFF713BF0098012240000023D0EB020204
:1007500063EBE073009821464FEAE074B8EB0000C9
:1007600061EB0401E9E783F000435BE781F00041BE
:1007700058E72DE9F04D81EA030404F0004B21F025
:10078000004514464FF0000A23F0004150EA0502EC
:1007900020D054EA01021DD0C5F30A570246C5F322
:1007A0001303C1F31300C1F30A5640F4801543F458
:1007B0008013A7EB0608101BD64608F2FD3873EB32
:1007C000050002D308F1010801E092185B41B8F17D
:1007D000000F03DA00200146BDE8F08D00204FF441
:1007E0008011064684460EE0171B73EB050705D300
:1007F000121B63EB050306434CEA010C49084FEA60
:10080000300092185B4150EA0107EDD152EA030033
:1008100012D082EA040083EA0501084305D0101BC8
:10082000AB4106D20122002306E000224FF0004334
:1008300002E06FF0010253101AEB06004CEB085176
:1008400010EB0A0041EB0B01BDE8F04DFFF78DBE48
:10085000C1F30A52C1F3130140F2FF3341F4801196
:100860009A4202DA00200146704740F233439A422E
:10087000A2F2334202DC5242FFF72FBEFFF71EBE48
:1008800030B5041E71F1000404DB4FF00044404217
:1008900064EB0101141E73F1000405DB1C464FF0EC
:1008A0000043524263EB0403994208BF904230BDBB
:1008B000064C074D06E0E06840F0010394E80700AD
:1008C00098471034AC42F6D3FFF762FCB0B60E087E
:1008D000F0B60E08202A06DBCB17203A41FA02F0C8
:1008E00043EAE07306E041FA02F3D040C2F120028D
:1008F00091400843194670470048704768C10B088B
:100900002DE9F05F82460078002715468B460AF1F4
:100910000104B946302801D09DB113E014F8010B51
:100920000127782803D0582801D045B10AE00DB13D
:10093000102D07D10027102514F8010B02E008251F
:1009400000E00A250026B0460EE005FB080005FB86
:1009500006F1012701EB10461FFA80F8B6F5803F3B
:1009600000D3B94614F8010B294600F018F8002806
:10097000EBDABBF1000F05D00FB1641E00E0544666
:10098000CBF80040B9F1000F06D016F0F9FA0221B9
:100990000160C81EBDE8F09F48EA0640FAE73A2821
:1009A00000D2303820F02002412A01D3A2F13700D2
:1009B000884201D34FF0FF30704770B58C1810F8A3
:1009C000015B15F0070301D110F8013B2A1106D194
:1009D00010F8012B03E010F8016B01F8016B5B1EAE
:1009E000F9D12B0705D40023521E0DD401F8013B89
:1009F000FAE710F8013BCB1A921C03E013F8015BF5
:100A000001F8015B521EF9D5A142D8D3002070BD78
:100A1000FEE7000070470000B0B5B3F5804F034615
:100A200015D153F822C00020CCF6F0700CEA000C6F
:100A3000D1E9000ED1E9024540EA0C0040EA0E106F
:100A4000896940EA042040EA0540014301E06FF073
:100A50007041002043F82210B0BD00002DE9F043A2
:100A6000D1E9008C864601F11007D1E90209F0CFE7
:100A70005EF828308022CFF6F0721A4042EA0C026B
:100A800042EA090222432A4332430B6A3A434F6A3D
:100A90001A438B6A3A43CF6A1A43CB6B3A43096BCA
:100AA0001A431143014308284FF0000008BF41F0EA
:100AB00040014EF82810BDE8F0830000F0B500EBCF
:100AC00082025068D1E902E400F0404CD1E90030E4
:100AD000D1E9045643EA0C03002743EA0010CFF69D
:100AE000F07740EA0E20896907EB055540EA04409B
:100AF0002843FE36084340EA066100205160F0BDFD
:100B000070B5866D044600F07FF994F8351002291F
:100B100028D105462068216C026822F01602026086
:100B2000426922F08002426109B9A16C19B10168E1
:100B300021F008010160016821F00101016000BF9E
:100B400020680068C00714D000F05EF9401B06283A
:100B5000F6D320206065002084F83400032084F858
:100B6000350070BD80206065002084F834000120CD
:100B700070BDE06D3F2101FA00F0B060002001215E
:100B800084F8340084F8351070BD000090F83510FA
:100B9000022909D1052180F835100068016821F08B
:100BA00001010160002070478021416501207047EC
:100BB00070B582B248F68900C8F68800A2FB000131
:100BC00021F00F034EF21800A3EB111340F2C07C8A
:100BD000CEF20000A2EB430E1E2AC2F2000C16D386
:100BE0000B09DCF8001047F230524A4350F8041C5D
:100BF000056800240668B542FCD02C44A41BB5420D
:100C000098BF0C4494423546F4D3013BEED1BEF17B
:100C1000000F08BF70BD50F8042CDCF800104FF432
:100C20007A730EFB01F10668594300230568AE4252
:100C3000FCD033445B1BAE4298BF13448B422E461C
:100C4000F4D370BD2DE9F04F82B000F13E4241F681
:100C5000004502F1FF77C4F2020508224FEAB726E9
:100C6000A84208BF0722072E38BF4FEAB7224FF02D
:100C7000010E002400274FF00009009209E000BF98
:100C800009F101090237B9F1100F04F1040400F071
:100C9000A3800A680EFA09FC12EA0C08F0D0D1F819
:100CA00004B00BF0030AAAF10102012A14D88268E9
:100CB0000323CE6803FA07FE22EA0E02BE40324347
:100CC00082604268CBF3001622EA0C0206FA09F6AB
:100CD0004FF0010E32434260BAF1030F1DD0C268DB
:100CE00003238D6803FA07F6B24305FA07F6324389
:100CF000BAF1020FC26010D16FF0030202EA59028A
:100D00000244D2F820C004F01C050F230E69AB404A
:100D10002CEA0303AE4033431362026803234E6898
:100D2000BB409A4306F00303BB401A43F300026042
:100D3000A6D5002243F644030192C4F202031A68C6
:100D400043F6004C42F480421A601A68C4F2010C67
:100D500002F480420192019A29F003024FF6084AF8
:100D60006244CFF6FF7A52F80A3004F00C060F25E1
:100D7000B540AB43009D05FA06F6334342F80A300E
:100D8000DCF800204B6842EA0806DD0358BF22EA7F
:100D90000806CCF80060DCF804209D0342EA08064F
:100DA00058BF22EA0806CCF80460DCF80820DD020F
:100DB00042EA080643F60C4558BF22EA0806CCF87A
:100DC0000860C4F201052A689B0242EA080658BF7F
:100DD00022EA08062E6053E702B0BDE8F08F00005B
:100DE0000069084018BF012070470000002A08BFB2
:100DF000090481617047000042F20000CEF2040055
:100E00000068000C704700004CF2C010C2F20100F4
:100E10000068704747F2C4704CF2C011C1F2000084
:100E2000C2F2010100780A681044086070470000AF
:100E300080B543F60040C4F20200016841F400713D
:100E40000160016841F480610160032000F06EF8E8
:100E50000F2000F005F800F02BF8002080BD000006
:100E6000B0B547F2C472C1F2000240F2D821127844
:100E7000C2F200014FF47A730968B3FBF2F2044640
:100E8000B1FBF2F1084601F093FA0F2C4FF0010587
:100E90000CD858B94FF0FF3021460022002500F051
:100EA00019F847F2C870C1F2000004602846B0BDCE
:100EB00070470000002848BF704700F01F01012262
:100EC00002FA01F14EF200124009CEF2000242F89D
:100ED0002010704710B54EF60C5CCEF2000CDCF81A
:100EE0000030C3F3022E8EF00704042C28BF042424
:100EF000BEF103034FF0FF3E0EFA04F438BF0023A7
:100F0000A14399400EFA03F39A43114300F1604262
:100F100000F00F03090102F56442043B634400281A
:100F200048BF03F10C02117010BD00004EF60C51C9
:100F3000CEF200010A684FF6FF031A4060F30A225E
:100F400042F0806040F0FD70086070472DE9F0418C
:100F5000002800F08B8043F60808C4F2020804461B
:100F6000D8F8F8030D4600F00700884207D288F849
:100F7000F853D8F8F80300F00700A84276D12068AB
:100F8000810717D5410705D5D8F8001041F4E05185
:100F9000C8F80010010705D5D8F8001041F46041E9
:100FA000C8F80010D8F80010A26821F0F001114331
:100FB000C8F80010C0073FD1D8F8F80300F00700C8
:100FC000A84207D988F8F853D8F8F80300F00700CA
:100FD000A8424BD12068410707D5D8F80010E26835
:100FE00021F4E0511143C8F80010000708D5D8F8E3
:100FF0000000216920F4604040EAC100C8F8000008
:1010000000F07CF8D8F800104CF23032C1F3031134
:10101000C0F60B02515C40F2D82220FA01F147F2EF
:10102000C870C1F200000068C2F200021160FFF750
:1010300017FF0020BDE8F0816068811E022907D2F9
:1010400058F8081C89015CBF0120BDE8F08110E060
:10105000012807D158F8081C89035CBF0120BDE8AE
:10106000F08106E058F8081C890702D40120BDE889
:10107000F081D8F8001021F003010843C8F80000FF
:10108000FFF7C2FE064641F2883700BFD8F80000DD
:10109000616800F00C00B0EB810F8DD0FFF7B4FE5B
:1010A000801BB842F2D90320BDE8F08140F2D8207D
:1010B00043F60801C2F20000C4F2020100680968A8
:1010C0004CF24032C1F38221C0F60B02515CC840A1
:1010D0007047000040F2D82043F60801C2F2000039
:1010E000C4F20201006809684CF24032C1F3423197
:1010F000C0F60B02515CC8407047000010B543F6C3
:101100000404C4F20204606800F00C0142F20040E2
:101110000829C0F2F40007D0042918BF10BD41F21D
:101120000020C0F27A0010BD216801F03F02216862
:1011300023684902C3F3881105D4A1FB00010023F1
:10114000FFF746F806E041F20020C0F27A0048437B
:10115000B0FBF2F021680222C1F3014102EB410130
:10116000B0FBF1F010BD00002DE9F04182B0002885
:1011700000F0A1800446007843F60006C007C4F2E0
:10118000020643D0B06800F00C00042805D1306896
:1011900080033BD56068C8BB8DE0B06800F00C00F0
:1011A000082802D170684002F1D46568B5F5A02F17
:1011B0000AD0B5F5803F0BD0306820F48030306025
:1011C000306820F4802006E0306840F480203060F1
:1011D000306840F480303060FFF716FE002D054681
:1011E00011D000BF3068800310D4FFF70DFE401B04
:1011F0006428F7D920E100BFFFF706FE401B6428F2
:101200004FF0030054D830688003F5D4207880076D
:101210001AD5B06810F00C0F09D0B06800F00C00BF
:10122000082840F088807068400200F184803068AF
:10123000800702D5E06801283DD13068216920F09F
:10124000F80040EAC10030602078000737D42078E9
:1012500040074AD4A56955B3B06800F00C000828CF
:1012600040F09C80012D26D07068E16900F4800276
:101270008A4220D1216A00F03F028A421BD147F600
:10128000C071626A0140B1EB821F14D1A16A4FF6AE
:10129000FF73C903994300F44032A1F580318A42BB
:1012A00009D1E16A00F07060B0EB016F03D100205A
:1012B00002B0BDE8F081012002B0BDE8F0816069B4
:1012C000002840F20000C4F2472056D00121C0F8A7
:1012D000801EFFF799FD0546706F8007B7D4FFF7B2
:1012E00093FD401B0228F7D9A6E0306C10F080581F
:1012F0000AD100200190306C40F080503064306C96
:1013000000F080500190019847F20007C4F20007F6
:101310003868C00524D4386840F480703860FFF71E
:1013200073FD05463868C0051AD4FFF76DFD401BF4
:101330000228F7D980E0E068002851D00020C4F2EC
:10134000472001210160FFF75FFD054630688007F7
:101350003FF573AFFFF758FD401B0228F6D96BE04D
:10136000A568052D50D0012D52D0306F20F001001E
:101370003067306F20F004004DE00021C0F8801E7F
:10138000FFF742FD054600BF706F80077FF55FAF36
:10139000FFF73AFD401B0228F6D94DE00027C4F2C2
:1013A000472700203866FFF72FFD022D05460BD199
:1013B0003068800158D5FFF727FD401B02284FF009
:1013C0000300F5D974E700BF306880017FF56FAF87
:1013D000FFF71AFD401B02284FF00300F4D967E71E
:1013E0000020C4F2472000210160FFF70DFD0546F3
:1013F000306880077FF528AFFFF706FD401B022805
:101400004FF00300F4D953E7306F40F00400306729
:10141000306F40F001003067FFF7F6FC002D054605
:1014200041F2883714D000BF306F800713D4FFF724
:10143000EBFC401BB842F7D9032002B0BDE8F081B5
:10144000FFF7E2FC401BB8424FF003003FF630AF1D
:10145000306F8007F4D4B8F1000F7FF4FBAE306C2E
:1014600020F080503064F5E604F11C052FCD0843D0
:1014700040EA8210D9034FF6FF729143A1F5803103
:1014800040EA05600843706001203866FFF7BCFC45
:10149000044600BF306880013FF509AFFFF7B4FC98
:1014A000001B02284FF00300F4D901E72DE9F041B9
:1014B00086B00446032084F83400606C8846032814
:1014C00010D14FF08050A16B40F2FF560843A0634B
:1014D000A06BC0F2400668B320680125866384F8DB
:1014E000345031E0B8F1000F41D0B8F5805FE8D05A
:1014F000B8F5006F51D100212068059104910021B9
:1015000001F0C4FB80014BD404A9204601F052FE37
:101510000028D8D19DF8160040073BD5216D2068E2
:10152000090401F0DFFB0028CDD12068022101F081
:1015300023FCC8E794E80F00D4E90557CDE90085FE
:10154000029701F0A7FB002520684FF4007101F01D
:1015500007FC28B1216801258E63A16B0843A063B5
:101560000121284684F8341006B0BDE8F08100213E
:10157000206805910491002101F088FB80010FD4BF
:1015800004A9204601F016FE00289CD19DF8160003
:10159000C00708D14FF0806095E74FF0006092E7F8
:1015A0004FF400608FE7216D2068090401F09AFB79
:1015B00000287FF488AF2068002101F0DDFB82E77E
:1015C00080B5D0E9193ED0F844C09A0F0A70C3F331
:1015D00083624A70C3F301628A701A0CCA701A0AD5
:1015E0000A714FEA1E524B71CA80CEF303420A724F
:1015F000CEF3C0324A72CEF380328A72CEF34032DA
:10160000CA72CEF300320A730022BCF1010F4A7392
:101610002DD0BCF1000F40F0808040F6FC72C36E0C
:1016200002EA8E0242EA93720A61C26EC2F3C26398
:101630000B75C2F302634B75C2F342538B75C2F351
:101640008243C2F3C232CB750A760A690B7E01323D
:1016500003F0070302339A4042650B7A03F00F0C44
:10166000012303FA0CF383655B0A5A430FE0B0F8D9
:101670006E200EF03F0342EA03420A610A694FF40A
:10168000806303EB82224FF40073C0E91523C26527
:101690004FF400720266D0E91B20C2F380334B7610
:1016A000C2F3C61302F07F028B76CA76C20F0A77A6
:1016B000C0F341724A77C0F382628A77C0F38352E3
:1016C000CA77C0F3405281F820200022C0F30043C3
:1016D00081F8212081F82230C0F3C03381F8233013
:1016E000C0F3803381F82430C0F3403381F82530D3
:1016F000C0F3003381F82630C0F3812381F827300E
:10170000C0F30123C0B2400881F8283081F82900D5
:10171000012081F82A00104680BD016840F2FF5286
:10172000C0F240028A63816B012241F080518163E3
:1017300080F83420104680BD80B500F1440E9EE84C
:101740000C5081E80C10426DC1E903E2D0E9162388
:10175000C1E90523026E0020CA6180BDB0B5016DEC
:1017600004460068090401F00DFC10B10546002094
:1017700006E020680021002501F088FAC0F343202C
:10178000002D08BFB0BDA16B2943A163B0BD00000F
:1017900010B5D0B1044690F8340020B9002020776D
:1017A000204600F021F9032084F83400204600F0A0
:1017B0000FF800284FF0010018BF10BD0021A163F1
:1017C000216384F83400002010BD012010BD00000A
:1017D000F0B58FB004460068762100260291002102
:1017E000002200230096019601F054FA00284FF0E1
:1017F000010540F0E38048F2A007C4F225273E60CF
:10180000206801F05DFA3D600496206801F0C0FA9E
:1018100038B198B1012584F83450A16B0843A06316
:10182000CCE0206801F0D8FA00286DD020680021B3
:10183000A16401F0ADFA0028EBD167E02068012136
:10184000ADF80E1001F01EFA002800F09080606CD8
:1018500003281DD0206801F01FFB002840F089807C
:101860002068002101F012FA21686067084604210F
:1018700001F00CFA2168A0670846082101F006FA79
:101880002168E06708460C2101F000FAC4F88000E6
:10189000606C032806D020680DF10E0101F07EFB7C
:1018A000002866D1606C03281FD0BDF80E10206898
:1018B0002165090401F024FB00285AD12068002189
:1018C00001F0E4F9216860660846042101F0DEF9C0
:1018D0002168A0660846082101F0D8F92168E06671
:1018E00008460C2101F0D2F920672068042101F09C
:1018F000CDF9000DE06404A92046FFF761FE002841
:101900005FD04FF0805034E00120A064A06C01282B
:1019100007D12068002101F0E5F910B14FF08050A7
:1019200077E704984FF6FE76B0423DD80025CCF21A
:10193000101500BF2068002101F0D4F900287FF4C1
:1019400068AF2068294601F0D9F90028E6D120685F
:10195000002101F09BF90499013104910499B142ED
:1019600002D8B0F1FF3FE5DCC0F380701DE04FF01E
:10197000806030B1012584F83450A16B0843A06326
:101980001CE020684FF4007101F0EAF9A8B1216869
:1019900040F2FF52C0F240028A63A16B0125084366
:1019A000A06384F8345009E000200499B1429ABF42
:1019B000606400204FF080702BE7002528460FB0B0
:1019C000F0BD216D20680A04002301F059FA0028B7
:1019D000CFD194E88F00D4E90565CDE90076029572
:1019E00001F058F90020C4E7B0B586B0002143F6F5
:1019F00030000191C4F20200426940F6000542F451
:101A0000006242614269C4F2020502F4006201927E
:101A1000019A0191026801AC42F00402026002687E
:101A200002F004020192019A0191026842F004025C
:101A30000260026802F004020192019A01910268B8
:101A400042F004020260026802F004020192019A6C
:101A50000191026842F004020260026802F004028E
:101A60000192019A0191026842F004020260026848
:101A700002F004020192019A0191016841F008010B
:101A800001600068012100F00800019001984FF406
:101A90008070019002200290CDE903100C20059087
:101AA00028462146FFF7CEF84FF4007001902846F3
:101AB0002146FFF7C7F84FF4806001902846214681
:101AC000FFF7C0F84FF40060019028462146FFF769
:101AD000B9F84FF48050019028462146FFF7B2F83C
:101AE0000420019005F580602146FFF7ABF806B0B1
:101AF000B0BD00002DE9F04F87B09B4615460E465D
:101B00000446FFF781F97EB1804694F8340001283D
:101B10000ED10021A163E06D0BEB050282420FD9CB
:101B2000A06B40F0007006E0A06B40F0006002E0A7
:101B3000A06B40F00050A063012007B0BDE8F08F1B
:101B4000032084F83400626C2068012A4FF0FF32D1
:101B5000C16218BF6D0201924FEA4B224FF0020999
:101B600002929022CDE90491012701A903920697E0
:101B700001F074F8BBF1020F07D3C4F8309020686D
:101B8000294601F065F930B916E027632068294637
:101B900001F06AF980B1216840F2FF52C0F24002C0
:101BA0008A63A16B0843A0630120002184F83400FC
:101BB000216307B0BDE8F08FDDF84090029D40F250
:101BC0002A3A05E0FFF720F9A0EB0800484547D284
:101BD0002068426B416B12EA0A0F0FD10804F1D55D
:101BE000002DEFD0043E0827206801F071F8013F76
:101BF00046F8040FF8D1203D0436E3E7BBF1020FAD
:101C000009D311F4807106D0616C032903D001F06F
:101C100013FA0028BFD12068416B090733D4416B08
:101C2000890739D4416B89063FD42068416B89020A
:101C300044D5002D42D001F04BF846F8040B043D8A
:101C4000FFF7E2F8A0EB08004845EED3206840F229
:101C5000FF51C0F240018163A06B40F00040A2E759
:101C6000206840F2FF51C0F240018163A06B40F058
:101C70000040A063012084F834000020206303208A
:101C800007B0BDE8F08F40F2FF51C0F24001816320
:101C9000A06B40F0080086E740F2FF51C0F240011F
:101CA0008163A06B40F002007DE740F2FF51C0F27B
:101CB00040018163A06B40F0200074E740F23A518C
:101CC0008163012084F83400002007B0BDE8F08F64
:101CD0002DE9F04F87B09846154689460446FFF730
:101CE00093F8B9F1000F0FD0824694F83400012820
:101CF0000ED10021A163E06D08EB050282420FD9ED
:101D0000A06B40F0007006E0A06B40F0006002E0C5
:101D1000A06B40F00050A063012007B0BDE8F08F39
:101D2000032084F83400626C2068012A4FF0FF32EF
:101D3000C16218BF6D0201924FEA482202929022BE
:101D4000CDE9032105910121069101A900F086FF4B
:101D5000B8F1020F07D3202020632068294601F044
:101D60007BF938B917E0102020632068294601F07C
:101D70007FF980B1216840F2FF52C0F240028A63CD
:101D8000A16B0843A0630120002184F83400216383
:101D900007B0BDE8F08F109EDDF808B040F21A37AA
:101DA0006D4605E0FFF730F8A0EB0A00B0424BD2D9
:101DB0002068426B416B3A4225D14804F2D5BBF111
:101DC000000FEFD0A9F104074FF0080917F8040F2E
:101DD0000090797840EA01200090B97840EA01400B
:101DE0000090F97840EA016120680091294600F0EE
:101DF00073FFB9F10109E9D1ABF1200B07F1040937
:101E000040F21A37CEE7B8F1020F09D311F480710E
:101E100006D0616C032903D001F00EF90028A9D186
:101E20002068416B090720D4416B890726D4416B98
:101E3000C9062CD440F23A518163012084F8340061
:101E4000002007B0BDE8F08F206840F2FF51C0F2DB
:101E500040018163A06BA063012084F8340000205E
:101E60002063032007B0BDE8F08F40F2FF51C0F2BD
:101E700040018163A06B40F0080083E740F2FF510E
:101E8000C0F240018163A06B40F002007AE740F2AB
:101E9000FF51C0F240018163A06B40F0100071E778
:101EA000002804BF0120704710B50446406A20B1E5
:101EB0000020206104F1140005E06068B0F5827F25
:101EC00003D004F11C000021016094F8510028B9EE
:101ED000002084F85000204600F044F8022084F8E6
:101EE000510094E8071001F48271036802F404427F
:101EF00023F040030360236911440CF40062114491
:101F000003F002026369114403F00102D4F818E0FF
:101F100001EB020CE1690EF40072944401F0380107
:101F2000226A8C44A16A02F0800242EA0C0201F4A7
:101F300000531A430260636A042202EA1E4203F05D
:101F400010031A444260B1F5005F04BFA18D016126
:101F5000C16921F40061C16100200121606584F83C
:101F6000511010BDB0B586B040F20044C4F2020476
:101F70000068A4F55441884201D006B0B0BD0020ED
:101F800043F630010190C4F202010A6801AD42F04B
:101F900002020A600A6802F002020192019A0190AC
:101FA0000A6842F002020A600A6802F00202019224
:101FB000019A0190086840F0020008600868012159
:101FC00000F0020001900198082001900220029088
:101FD000CDE903100520059020462946FEF732FE84
:101FE0001020019020462946FEF72CFE202001906B
:101FF00020462946FEF726FE06B0B0BD2DE9F04783
:1020000084B004460020029094F85000012801D1C9
:102010000227F1E001201D4616468A4684F850004A
:10202000FEF7F2FE94F85110814601290BD060684A
:10203000B0F5827F40F08E80A0680227002808BF9C
:10204000042940F0D380BAF1000F4FF0010718BF08
:10205000002E00F0CB80002D00F0C88094F85100D5
:1020600004281CBF052084F8510000206065A66389
:10207000E587A587C4F830A0E586A16AA586B1F5F5
:10208000005F2064606408D12068016821F4005179
:102090000160016841F4005101602068016849064F
:1020A00003D4016841F04001016061686B1EE26881
:1020B000B1FA81F1B3FA83F3DDF8308049095B09A5
:1020C000B2F5006F41EA030146D139B13AF8021B7B
:1020D000C160C4F830A0E08E0138E086012608F126
:1020E000010500BFE08E18B9E08F002800F088805D
:1020F00020688168890716D5E18EA1B1012E12D121
:10210000216B31F8022BC2602163E18E0139E18637
:10211000E18E39B9A16AB1F5005F03D1016841F4DC
:102120008051016000268168C9070AD0E18F41B162
:10213000C068A16B012621F8020BA163E08F013872
:10214000E087FEF761FE002DCCD0A0EB09004045F2
:10215000C8D34AE0022749E041B19AF80010017360
:10216000206B01302063E08E0138E086012608F103
:10217000010500BFE08E10B9E08F002840D0206834
:102180008168890719D5E18EB9B1012E15D1216B6E
:1021900009780173206B01302063E08E0138E086FE
:1021A000E08E48B9A06AB0F5005F05D120680168EB
:1021B00041F48051016000BF002620688168C90792
:1021C0000BD0E18F49B1C068A16B01260870A06BEC
:1021D0000130A063E08F0138E087FEF715FE002D87
:1021E000C8D0A0EB09004045C4D30327012084F8E0
:1021F0005100002084F85000384604B0BDE8F08754
:10220000A06AB0F5005F12D12046012101224346A9
:10221000CDF8009001F03AF828B1606D032740F046
:1022200002006065E2E72068C068029002982068BA
:102230008168C90601D4002707E0616D012741F0DC
:10224000020161654FF6EF71816040F2D821C2F260
:102250000001096849F68172C1F25E62A1FB0212B7
:10226000510D4FF47A72514303916168B1F5827F49
:1022700010D12046802100224346CDF8009001F085
:1022800005F878B1606D012740F0200060652020DE
:102290006065ABE7039929B103990139039181681E
:1022A0000906F7D4A0680028A0D10020019020687A
:1022B000C168019180680190019897E7002804BFE8
:1022C0000120704770B5044690F8490015460E4647
:1022D00028B9002084F84800204600F01BF8206848
:1022E00004F10801FEF7BAFB2068A2683146FEF748
:1022F000E5FBD4E90102236B2946FEF78DFB20683C
:10230000A16850F8212042F0010240F8212000206D
:1023100070BD0000B0B586B0002043F630010190DA
:10232000C4F202018A6840F6004442F001028A6069
:102330008A68C4F2020402F001020192019A01903B
:102340000A6801AD42F008020A600A6802F0080259
:102350000192019A0190086840F010000860086836
:10236000012100F01000019001984CF203700190DF
:1023700002200290CDE903100C200590204629464A
:10238000FEF760FC4FF68070019004F580602946EE
:10239000FEF758FC06B0B0BD4EF21001CEF20001BF
:1023A0000A68042822F0040208BF04320A60704759
:1023B000411E0020B0EB116F1CBF012070474EF290
:1023C0001002CEF2000251604EF62351CEF200010F
:1023D000F0230B700721906011607047002804BF44
:1023E0000120704710B5044690F83D0028B9002040
:1023F00084F83C00204600F01FF8022084F83D00DD
:102400002068211D00F0DEFF012084F8460084F8DA
:102410003E0084F83F0084F8400084F8410084F8CE
:10242000420084F8430084F8440084F8450084F8AE
:102430003D00002010BD00007047000090F83D10E6
:1024400001291CBF01207047022180F83D1000685F
:1024500041F2FF72C168C4F20002904241F00101F2
:10246000C1600DDC40F2FF71C4F20001884215DC4E
:10247000B0F1804F29D040F20041C4F2000122E0C7
:1024800040F2FF31C4F20101884212DC41F6000142
:10249000C4F20001884218D0002112E040F6000189
:1024A000C4F20001884210D040F60041C4F200019D
:1024B00009E044F20001C4F20101884205D040F273
:1024C0000041C4F20101884206D1816801F0070190
:1024D000062904BF00207047016841F00101016036
:1024E00000207047704700007047000090F83D10D2
:1024F00090F83E000843C0B270470000B0B582B00B
:10250000026805461068D368546900F02F0120293D
:1025100003F0200106D129B1284602B0BDE8B04041
:1025200000F0E8BF5FEA007C1EBF04F0010E03F478
:10253000907414EB0E0453D1296B012905D110F0CE
:10254000100118BF13F0100136D1010622D513F087
:1025500080011FD095F83D0021283FD1A868B0F533
:10256000805F03D12869002800F0F780286A411CA9
:10257000296200785060E88C01380104E8842DD18C
:10258000D06820F08000D060D06840F04000D0607B
:1025900002B0B0BD400621D513F040001ED0D06877
:1025A000202120F04000D060284685F83D1002B080
:1025B000BDE8B04000F048BB0020019010680190D9
:1025C0005068019001985069400611D4A88DE98D9A
:1025D000EB8D002B18BF884240F0A68002B0B0BD42
:1025E000C20718BF13F480722DD1420731D437E0EF
:1025F000A86B016849688BB2002BEFD0AC8DA34269
:10260000ECD2E985C169B1F5807F16D0D16821F49B
:102610008071D160516921F001015161516921F04E
:1026200040015161202185F83E1000212963D168C5
:1026300021F01001D160FEF763FAA88DE98D401AF0
:1026400081B2284684E02A6C42F001022A644207E3
:1026500006D5BEF1000F03D02A6C42F002022A64B4
:10266000820706D5BEF1000F03D02A6C42F00402A7
:102670002A64BCF1000F09D541EA0E02B2FA82F2D7
:10268000520903D12A6C42F008022A642A6C002AFB
:10269000A4D010F0200018BF002902D0284600F076
:1026A00029FF286841692A6C01F0400102F0080204
:1026B00089182CD0C16821F49071C160416921F062
:1026C00001014161296B012903D1C16821F0100189
:1026D000C160202185F83E10002129634169490627
:1026E0001CD5416921F040014161A86BB0B143F2B2
:1026F000E941C0F60A010165FEF748FA00283FF4F7
:102700006DAFA86B016D02B0BDE8B0400847284628
:10271000FFF7EAFE0020286402B0B0BD284602B0F0
:10272000BDE8B040FFF7E0BED368401A23F49073D1
:10273000D360536981B223F001035361202385F8EC
:102740003E3000232B63D368284623F01003D36068
:1027500002B0BDE8B040FFF7C5BE286A30F8021BE2
:102760006FF35F215160286205E70000002804BF75
:102770000120704710B5044690F83D0028B90020AC
:1027800084F83C00204600F021F8242084F83D0025
:102790002068C16821F40051C160204600F0FAFEB3
:1027A0002068016921F490410161416921F02A0109
:1027B0004161C16841F40051C160002020212064C2
:1027C00084F83D1084F83E1010BD00002DE9F04360
:1027D00085B00446006844F60001C4F20001884256
:1027E0004ED041F20001C4F20101884240F09B80CA
:1027F000002043F630010090C4F202014A6900242F
:1028000042F010024A614A69C4F2020402F0100266
:102810000092009A00900A686D4642F001020A6038
:102820000A68072602F001020092009A00900868E8
:1028300040F0010008600868012100F001000090EC
:1028400000984FF40070009002200190CDE9021032
:10285000204629460496FEF7F5F94FF48060009073
:10286000204629460496FEF7EDF92520FEF722FBC7
:10287000252003210322FEF72DFB05B0BDE8F083E0
:10288000002743F630000097C4F202000168E846D2
:1028900041F0020101600168022601F0020100918D
:1028A0000099009701684FF0070941F002010160AB
:1028B000016801F00201009100990097016941F45B
:1028C000802101610069414600F480200090009859
:1028D0004FF4806000900020C4F2020000F5806593
:1028E0002846CDE901670396CDF81090FEF7AAF9C6
:1028F0004FF400608DE8C10028464146CDE90369E8
:10290000FEF7A0F9272000210022FEF7E3FA272096
:10291000FEF7D0FA2068C16841F02001C160C168AB
:1029200041F01001C16005B0BDE8F0832DE9F0432E
:1029300081B0044690F83E0020280BD10D460029B6
:102940004FF0010067D01746002A64D094F83C008D
:10295000012803D1022001B0BDE8F083012084F8F2
:102960003C00002022219846206484F83E10206319
:10297000FEF74AFAA785E785A1688146B1F5805F31
:1029800001D1206910B12E46002500E0002600206C
:1029900084F83C00E08DD0B308F101070CE000BFE3
:1029A0002068002640686FF35F2025F8020BE08D59
:1029B0000138E085E08D50B320680068800613D4AC
:1029C0007FB1B8F1000F06D128E000BF0168890689
:1029D0000AD4002FFAD0FEF717FAA0EB0900404501
:1029E0001CD82068F2E700BF002ED9D0A068B0F54F
:1029F000805F07D008B9206920B12068406800F0E6
:102A00007F0001E02068406806F8010BCFE7202036
:102A100084F83E00002001B0BDE8F0832068C16862
:102A200021F4D071C160416921F001014161202090
:102A300084F83D0084F83E00002084F83C00032028
:102A400001B0BDE8F0830000034690F83E00202866
:102A50000AD100294FF0010018BF002A00D17047A9
:102A600093F83C00012801D1022070470020186330
:102A7000996222219A85DA85186483F83E101968D4
:102A800083F83C00CA6842F48072CA604A6942F026
:102A900001024A61CA6842F02002CA607047000021
:102AA000006841F20001C4F20101884200D0704781
:102AB00041F6960CC2F2000CBCF8002011B20029BD
:102AC00048BF704740F2C973C2F200031B7850043C
:102AD00006D40D2B10D141F48042ACF80020704791
:102AE00048F200000022CFF6FF700A2B08BF41EA2F
:102AF0000002ACF80020704747F6F0606FF39F3299
:102B0000C1F2000083544A1C90B2C72888BF00223B
:102B1000ACF80020704700002DE9F04381B0044676
:102B200090F83D0020280DD10D4600294FF00100FE
:102B300000F086801646002A00F0828094F83C005F
:102B4000012803D1022001B0BDE8F083012084F800
:102B50003C00002020642120984684F83D00FEF7C8
:102B600053F9A684E684A1688146B1F5805F01D15E
:102B7000206910B12F46002500E00027002084F8CE
:102B80003C00E08C58B308F1010609E097B117F852
:102B9000010B21684860E08C0138E084E08CF0B1E2
:102BA000206800680006F1D4BEB1B8F1000F0ED164
:102BB00020E000BF35F8020B21686FF35F2048600A
:102BC0000027E8E701680906E0D4002EFAD0FEF7F6
:102BD0001BF9A0EB090040450CD82068F2E72068FB
:102BE0000068400628D4B8F1000F03D018F10105A1
:102BF00015D01AE02068C16821F4D071C160416924
:102C000021F001014161202084F83D0084F83E005C
:102C1000002084F83C00032001B0BDE8F083206868
:102C20000168490608D4002DFAD0FEF7EDF8A0EBB4
:102C300009004045F3D9DDE7202084F83D0000205D
:102C400001B0BDE8F083000070470000FEE700001F
:102C5000FEE70000704700007047000080B50246A4
:102C600091E809505062936208694EEA0C031843D8
:102C70004969D36A084323F0F70101430020D16278
:102C800080BD0000006800F0030070470844406900
:102C90007047000010B58446DDE902401143194336
:102CA0002143DDF810E00843DCF8041047F6FF622A
:102CB00040EA0E00914301430020CCF8041010BDFF
:102CC00080B5032101600220FDF772FF002080BD66
:102CD000D0F8800070470000096802460020C2F862
:102CE000801070478160C36840F2774161F30B0345
:102CF000372141F28832C36000F0C6B941F000418B
:102D000041F480118160C16840F2694262F30B01B5
:102D1000C16040F2D821C2F20001096844F6D352E2
:102D2000C1F26202A1FB0212510A41F28832514300
:102D3000C94300BF013124BF4FF000407047426BD0
:102D400012F0450FF6D012F40062F3D1416B042269
:102D500011F0040108BFC5228263084670470000D5
:102D60008160C3684FF48A6161F30B03102141F263
:102D70008832C36000F088B98160C36840F2464180
:102D800061F30B03062141F28832C36000F07CB985
:102D900000218160C1684FF4806262F30B01C16061
:102DA00040F2D821C2F20001096844F6D352C1F2C0
:102DB0006202A1FB0212510A41F288325143C94317
:102DC000013124BF4FF000407047426B1206F7D527
:102DD000C5218163002070474FF4D5718160C168BF
:102DE0004FF4896262F30B01C16040F2D821C2F254
:102DF0000001096844F6D352C1F26202A1FB02123B
:102E0000510A41F288325143C94300BF013124BF06
:102E10004FF000407047426B12F0450FF6D012F4AD
:102E20000062F3D1416B490709D4416BC90709D14D
:102E3000416B49064FF0000107D5402204E004220F
:102E4000042101E00122012182630846704700004D
:102E50008160C36840F2524161F30B03122141F2D9
:102E60008832C36000F010B98160C36840F25141FC
:102E700061F30B03112141F28832C36000F004B901
:102E80008260C36840F2474161F30B03072141F2BE
:102E90008832C36000F0F8B800218160C16840F258
:102EA000C24262F30B01C16040F2D821C2F20001BC
:102EB000096844F6D352C1F26202A1FB0212510A20
:102EC00041F288325143C943013124BF4FF00040E1
:102ED0007047426B12F0450FF6D012F40062F3D146
:102EE000416B490706D4416BC90705D1C5218163F0
:102EF00000207047042100E00121816308467047EB
:102F00008160C16840F2C94262F30B01C16040F2C6
:102F1000D821C2F20001096844F6D352C1F262021C
:102F2000A1FB0212510A41F288325143C94300BF4A
:102F3000013124BF4FF000407047426B12F0450F43
:102F4000F6D012F40062F3D1416B490706D4416B0D
:102F5000C90705D1C521816300207047042100E025
:102F6000012181630846704700218160C36840F2F7
:102F7000734161F30B03332141F28832C36000F0E7
:102F800083B800008160C36840F24D4161F30B03D8
:102F90000D2141F28832C36000F076B800228260D1
:102FA000C26840F2434363F30B02C26040F2D8228E
:102FB000C2F20002126844F6D353C1F26203A2FBCC
:102FC00003235A0A41F288335A43D243013224BFC1
:102FD0004FF000407047436B13F0450FF6D013F4E9
:102FE0000063F3D1426B52071BD4426BD2071AD154
:102FF0000269D2B2032A1CBF01207047C522826336
:10300000406910F4604F12D0410444BF4FF40050A7
:10301000704700044FF4805158BF4FF48031084688
:103020007047042100E00121816308467047000CCD
:10303000088000207047000000218160C36840F2D2
:103040004C414EF2001261F30B03C0F2F5520C2119
:10305000C36000F019B800008160C36840F25941B4
:1030600061F30B03192141F28832C36000F00CB800
:103070008160C3684FF48B6161F30B03182141F247
:103080008832C360AFF3008040F2D823C2F200035D
:10309000D3F800C044F6D353C1F26203ACFB033C47
:1030A00003464FEA5C205043013000BF013804BFA3
:1030B0004FF0004070475A6B12F0450FF6D012F4F3
:1030C0000062F3D1586B400742BF042098637047F9
:1030D000586BC0071EBF012098637047C5209863D6
:1030E0001869C0B288421CBF0120704758694EF26F
:1030F0000801CFF6FF51084204BF002070470028A6
:1031000044BF4FF000707047410044BF40207047FB
:10311000810044BF80207047C10044BF4FF48070DD
:103120007047010144BF4FF400707047410144BF34
:103130004FF480607047C10144BF4FF40060704796
:10314000010244BF4FF480507047410244BF4FF426
:1031500000507047810244BF4FF480407047C10265
:1031600044BF4FF400407047410344BF4FF4003068
:103170007047810344BF4FF480207047C10344BFB0
:103180004FF400207047010444BF4FF48010704793
:10319000410444BF4FF400107047810444BF4FF412
:1031A0008000704700074FF4000058BF4FF4803094
:1031B000704700002DE9F04188B00C460546FDF748
:1031C00023FE064600212868019100910821FFF79F
:1031D000C7FD10B108B0BDE8F081296D2868090469
:1031E000FFF780FD0028F5D14FF0FF300290082056
:1031F00003903020049002200590002006900121C9
:103200002868079102A9FFF729FD2868FFF7ACFE9F
:103210000028DFD10027E8460DE000BF0846FFF791
:1032200057FD48F827000137FDF7EEFD801B013000
:103230004FF00040CED02968486B10F02A0F05D11E
:10324000486B8002EAD4486B8004EDD4486B0007D9
:1032500012D4486B800711D4486B800610D440F21A
:103260003A508863DDE9001000BA09BAC4E90001E8
:10327000002008B0BDE8F081082002E0022000E054
:103280002020886308B0BDE8F08100002DE9F047F8
:1032900082B00A9C984615460E468146FDF7B4FD5D
:1032A000201A00EB0804FDF7AFFD40F2D821C2F26E
:1032B00000010968C1F3CB3161430191D9F80010D5
:1032C00089683140891BB1FA81F14909A94203D1CA
:1032D000002002B0BDE8F087824608F1010709E04E
:1032E000D9F8000080683040801BB0FA80F04009B7
:1032F000A842EDD0002FF3D0FDF786FDA0EB0A0029
:10330000A04207D201980199002808BF0446481E30
:103310000190E5E7D9E900014268B1F5827F22F02A
:10332000E00242600BD1D9F80810B1F5004F02D08D
:10333000B1F5806F03D1016821F040010160D9F837
:103340002810B1F5005F07D1016821F40051016038
:10335000016841F400510160012089F8510000200A
:1033600089F85000032002B0BDE8F08770470000E4
:10337000FDF750BD4EF68850CEF20000016841F4D2
:10338000700101600021C0F6040140F8801C704704
:1033900010B547F66464C1F200042068C068C00735
:1033A0000BD047F20060C1F200000069804720683E
:1033B000002141626421C162E16020686FF0010177
:1033C000016110BD10B540F6FF3E0368C4F2000E67
:1033D00040F2004C7045C4F2010C0FDCB0F1804F9C
:1033E00019D040F20042C4F20002904213D040F6DD
:1033F0000002C4F2000290420DD010E040F60042FC
:10340000C4F20002904206D0604504D00022C4F20B
:103410000102904203D14A6823F07003134341F63E
:10342000FF72C4F2000290420DDC70451FDCB0F167
:10343000804F41D040F20042C4F2000290423BD0A3
:1034400040F6000221E043F6FF72C4F2010290420E
:1034500020DC42F20002C4F2000290422CD0002292
:10346000C4F20102904227D0604525D028E040F602
:103470000042C4F2000290421ED041F60002C4F2A3
:103480000002904218D041F60042C4F2000290427D
:1034900012D015E044F20002C4F2010290420BD0B7
:1034A00044F60002C4F20102904205D044F2004208
:1034B000C4F20102904203D1CA6823F4407313435B
:1034C00023F080024B69D1F800E08C681A43026057
:1034D000C46240F48062C0F828E0624504BF096914
:1034E00001630121416110BD806B0021C185C18450
:1034F000FEF7FABF10B5044690F83E00222847D1E7
:10350000A168B1F5805F01D1206990B1A06AB1F5E1
:10351000805F07D009B9216921B12168496801F0AC
:103520007F0101E0216849680170A06A0130A06252
:1035300007E02068A16A40686FF35F2021F8020B62
:10354000A162E08D01380104E08518BF10BD20683C
:10355000C16821F02001C160C16821F48071C1609F
:10356000416921F001014161202184F83E10216B65
:10357000012908D1C16821F01001C160A18D204648
:10358000FEF7B0FF02E02046FFF78AFA0020206332
:1035900010BD000010B504460068D4E902C22369DA
:1035A000016921F4405111430161626943EA0C0150
:1035B000E3691143C268194349F20C639A4311430A
:1035C000C1604169A26921F4407141F20043114395
:1035D00040F48062C4F201039A42416102D1FDF7D6
:1035E00079FD01E0FDF762FDE16963681922B1F53B
:1035F000004FA0FB020121D15A00DB0FFCF7E8FDD0
:1036000048F21F51C5F2EB11A0FB01235A094FF6F6
:103610009C73C0F6FF7303F1805302FB0300322357
:1036200003EBC000A0FB01014FF4F87000EA111099
:1036300000EB0210C1F3421108441DE09A009B0FF9
:10364000FCF7C6FD48F21F51C5F2EB11A0FB0123A8
:103650005A094FF69C73C0F6FF7302FB0300322336
:1036600003EB0010A0FB0101F02000EA511000EB79
:103670000210C1F3431108442168886010BD0000A6
:10368000F0B581B040F65004C2F200044FF6FE7669
:103690002046C0F20106FEF731FF00252046FEF766
:1036A00025FF202803D0B54205F10105F6D940F6E3
:1036B000500440F2C9750027C2F20004C2F20005AE
:1036C000204629460122FFF7BFF918B1B74207F19A
:1036D0000107F5D901B0F0BDB0B584B047F6AC64D0
:1036E000C1F2000420680168090708D50021029191
:1036F000016802914168029102990168416800687D
:1037000040F694058006C2F2000546D547F6AC6047
:10371000C1F200000DF10F0101224FF0FF33FFF75E
:1037200005F9B5F9000840F2FE72B0F1FF3FDCBFC9
:103730000020A5F80008B5F8001808466FF3DF3040
:10374000904209D89DF80F102954B5F80018481C6C
:10375000C90B61F3DF3007E001F400409DF80F1062
:10376000A5F80008013029709DF80F10A5F8000891
:103770003E2904D140F40040A5F800080DE00146C0
:103780006FF3DF31022908D3294411F8022C0D2AE6
:1037900003D111F8011C0A29ECD020680168C90680
:1037A0000ED5B5F800184A041CBF41F40041A5F835
:1037B0000018002101910168019140680190019871
:1037C00004B0B0BDFEE700004EF60C50BFF34F8FC3
:1037D000CEF200000168042201F4E061C0F2FA5266
:1037E00011430160BFF34F8F00BFFDE72DE9F047A4
:1037F00090B016468146052040F2AC420F460025A7
:103800000090C2F20002484600210123019514F005
:103810001DFE8246000638D10DF10808404600F032
:1038200039F868B397B1BDF8160078B108F10C0407
:10383000002500BF57F825202046294614F072FBCA
:1038400027B1BDF8160001358542F3D396B1BDF816
:103850000E0078B108F10404002500BF56F82520B9
:103860002046294614F05EFB26B1BDF80E00013556
:103870008542F3D3D9F8000002A900F08BF820B9F3
:10388000D9F8000014F042FE8246504610B0BDE860
:10389000F0870000002804BF0020704780B584B086
:1038A0004CF27011C0F60B01D1E9001203924CF2F8
:1038B0007812C0F60B02D2E900230291CDE9002371
:1038C000694602AA14F050FD04B080BD14F00CBE8D
:1038D00014F01CBEF0B5A3B00C46054614F05AFD1A
:1038E000002C4FF0000618BF002802D1304623B04C
:1038F000F0BD45F62770C0F60D00009045F6047047
:10390000C0F60D00019045F6D660C0F60D0002909D
:1039100045F6EF60C0F60D00039014F00DFF049023
:1039200014F00EFF059045F24740C0F60D000690DA
:1039300040F202200027ADF81C00CDF81E70ADF853
:10394000227014F00BFD099014F07AFD0A9046F6EF
:10395000B0706E460C9006F1380044210D97FCF7CC
:1039600081FC4CF6DE20CAF2FA10119047F6A61040
:10397000C1F625702090284631461F9714F02AFC86
:1039800006460028B2D0694620468822FCF751FC42
:10399000ACE700002DE9F0410F46044614F0C4FDE9
:1039A00000286CD047F69055C1F20005064628461F
:1039B00001213A4614F00EFD8046002862D047F2FD
:1039C0008C31C1F200010A68286842F080420A6026
:1039D00000F12802C1E9022240F29842C2F200023C
:1039E000136840F2144143F08043136000F1480330
:1039F000C2E9023347F21C42C1F200021368C2F26C
:103A0000000143F08043136000F5E473C2E9023320
:103A100040F29432C2F2000213680D6843F0804312
:103A2000136000F50273C2E9023347F20832C1F2B3
:103A30000002136845F0804543F08043136000F5B1
:103A4000A163C2E9023347F2F842C1F200021368EF
:103A50000D6043F08043136000F5A963C2E90233AF
:103A600040F22052C2F2000213688860C86043F03E
:103A7000804100F5B9601160C2E9020007E0002052
:103A8000BDE8F08130463021122214F02BFE40F2C6
:103A9000C475C2F20005284601213A4614F084FCA0
:103AA000074600285AD0286847F2F051C1F20001B9
:103AB00040F20442C1E9020000F14001C2F20002FA
:103AC000C2E9021147F2B83200F58A71C1F2000270
:103AD000C2E9021147F2E051C1F2000140F26C422A
:103AE000C1E9020000F58071C2F2000240F24043D9
:103AF000C2E9021100F5A862C2F20003C3E9022282
:103B000047F26052C1F20002C2E9020047F27C3281
:103B1000C1F2000240F26833C2E9021100F50872F6
:103B2000C2F20003C3E9022240F22032C2F20002D4
:103B3000C2E9020040F2F452C2F20002C2E90211EC
:103B400047F2E841C1F20001C1E9020040F24C51E4
:103B50007030C2F20001C1E9020004E030463021B9
:103B6000132214F0BFFD204614F06AFD384000EA2D
:103B70000800BDE8F0810000002818BF14F03EBC2A
:103B800040F2AC4040F20012C2F20000CAF2C01291
:103B9000026014F033BC0000002818BF14F0A8BD68
:103BA00040F2AC4040F20012C2F20000CAF2C01271
:103BB000026014F09DBD000014F06ABD2DE9F043D1
:103BC00081B044F6DA684FF60C6545F2FB460027F3
:103BD000C0F60D080FF25409CFF6FF75C0F60D06BA
:103BE00004E000BF092F07F101071BD200F07EFAA5
:103BF0004046494600F046FA2C4606E000F076FAC8
:103C0000012001F069F80134ECD200F05DFA0028DF
:103C1000F6D03146FCF731FB0028EFD0002001B090
:103C2000BDE8F083012001B0BDE8F08341540000FD
:103C300070B5012824D0002848D14FF60C66CFF685
:103C4000FF7600F053FA44F6DA60C0F60D0023A1C7
:103C500000F018FA45F2FB45C0F60D05012404E01A
:103C6000012001F039F801362ED200F02DFA00289B
:103C7000F6D02946FCF701FB50BB00F037FAEFE71E
:103C80004FF60C66CFF6FF7600F030FA44F6DA60B5
:103C9000C0F60D000FA100F0F5F945F2FB45C0F6A6
:103CA0000D05012405E000BF012001F015F80136E3
:103CB0000AD200F009FA0028F6D02946FCF7DDFA0E
:103CC00030B900F013FAEFE7204670BD032070BD55
:103CD000002070BD41544531000000004154453082
:103CE0000000000070B54FF60C65CFF6FF7500F0D0
:103CF000FDF944F6DA60C0F60D001FA100F0C2F92C
:103D000045F2FB44C0F60D042E4604E0012000F00D
:103D1000E3FF01360AD200F0D7F90028F6D0214699
:103D2000FCF7ABFA20B900F0E1F9EFE7022400E07C
:103D3000002400F0DBF944F6DA60C0F60D0012A1B1
:103D400000F0A0F905E000BF012000F0C5FF01353B
:103D50000AD200F0B9F90028F6D03E21FCF7ABFA00
:103D600020B900F0C3F9EFE7FE2000E00020201AA0
:103D700018BF012070BD00BF41542B4349504D4F27
:103D800044453D310000000041542B434950534508
:103D90004E44000001A000F075B900BF2B2B2B0092
:103DA000B0B586B0002143F630020191C4F20202A0
:103DB0001368044643F020031360126841F2004583
:103DC00002F0200001900198402001900120CDE9EF
:103DD00002010220C4F20205049001A92846FCF762
:103DE00031FF284640210022FDF700F8642000F052
:103DF00073FF284640210122FCF7F8FF4FF4FA70C8
:103E000000F06AFF204600F027F9FFF7D7FE0028F0
:103E100018BF012006B0B0BD70B590B06C460B461F
:103E2000024614A1204613F085F800F05FF944F62D
:103E3000DA60C0F60D00214600F024F94DF6F006D8
:103E4000CFF6FF7610A4012505E000BF012000F0A9
:103E500043FF01360BD200F037F90028F6D0214697
:103E6000FCF70BFA10B900F041F9EFE700252846FE
:103E700010B070BD41542B43574A41503D22257329
:103E8000222C2225732200005749464920474F54CF
:103E90002049500070B514460D46064600F026F93C
:103EA00044F6DA60C0F60D00314600F0EBF8002D64
:103EB0004FF0000018BF002C05D170BD0120013C5F
:103EC00000F00AFF54B100F0FFF80028F6D02946B0
:103ED000FCF7D3F920B900F009F9EFE7022070BD33
:103EE000002070BD70B5032829D002284BD00128CE
:103EF0001CBF032070BD4FF60C66CFF6FF7600F0B6
:103F0000F5F844F6DA60C0F60D0038A100F0BAF812
:103F100045F2FB45C0F60D05012406E000F0E6F889
:103F2000012000F0D9FE013652D200F0CDF8002871
:103F3000F6D02946FCF7A1F90028EFD046E04FF66D
:103F40000C66CFF6FF7600F0D1F844F6DA60C0F6E2
:103F50000D0020A100F096F845F2FB45C0F60D05D6
:103F6000012406E000F0C2F8012000F0B5FE0136A1
:103F70002ED200F0A9F80028F6D02946FCF77DF9EA
:103F80000028EFD022E04FF60C66CFF6FF7600F067
:103F9000ADF844F6DA60C0F60D0011A100F072F839
:103FA00045F2FB45C0F60D05012406E000F09EF841
:103FB000012000F091FE01360AD200F085F80028B9
:103FC000F6D02946FCF759F90028EFD0002070BD43
:103FD000204670BD41542B43574D4F44453D33005F
:103FE00041542B43574D4F44453D320041542B43E0
:103FF000574D4F44453D310070B500F077F844F619
:10400000DA60C0F60D0012A100F03CF84FF60C6625
:1040100045F2FB44CFF6FF76C0F60D04012504E01F
:10402000012000F059FE01360FD200F04DF80028B3
:10403000F6D02146FCF721F910B900F057F8EFE768
:104040004FF47A7000F048FE0025284670BD00BF8E
:1040500041542B525354000047F6AC6144F6000221
:10406000C1F20001C4F2000200234FF00C0CC1E9C0
:1040700000200846C1E90233C1E9043C8B61CB61F1
:10408000FEF774BB83B010B581B041F2960484464C
:1040900003A8C2F200040EC003AA204661460092A3
:1040A00012F05CFF2046FCF710F982B247F6AC60D4
:1040B000C1F2000021464FF0FF33FEF72DFD01B0A5
:1040C000BDE8104003B0704740F69401C2F2000111
:1040D000B1F900280020B2F1FF3FC8BF704792B28B
:1040E0006FF3DF32885408467047000040F69400B2
:1040F000C2F200000021A0F8001870470A460146ED
:1041000047F6AC60C1F200004FF4FA63FEF704BD5D
:104110002DE9F043ADF5597D24210446FCF7A2F8C2
:104120004120208042F63160C2F63060A14649F855
:10413000040F3020208142F63060C0F23000264665
:1041400046F8140F45F29E00C0F60D0004F038F852
:1041500045F22E11C0F60D0142A8012205F06EF8BD
:1041600018B144A016F0F4F818E001AF38464FF447
:104170008071FCF777F842AD41AB28463946FF2203
:1041800005F0E2FA284603F019FC419904290AD8FF
:1041900044F65060C0F60D0012F0A2FE00200DF5AE
:1041A000597DBDE8F0833EA101A8FCF766F838B15F
:1041B000C079A0F1410101299EBF207000206070EC
:1041C00039A101A8FCF759F8F0B100F10608404602
:1041D0000A21FCF770F818B940460D21FCF76BF87E
:1041E00018B94046FCF771F84044A0EB0807012FCE
:1041F0000ADB0F2FA8BF0F27484641463A46FCF777
:1042000018F8E0190021017129A101A8FCF735F87F
:10421000F0B100F1060840460A21FCF74CF818B945
:1042200040460D21FCF747F818B94046FCF74DF819
:104230004044A0EB0807012F0ADB0F2FA8BF0F2770
:10424000304641463A46FBF7F4FFE019002101757C
:1042500020784A464138022824BF41202080217816
:1042600015A0334612F03CFE01200DF5597DBDE846
:10427000F08300BF5B424F4F545F4346475D20468B
:10428000696C65206E6F7420666F756E642C207586
:1042900073696E672064656661756C74730D0000E8
:1042A0006163746976653D007665725F613D00000B
:1042B0007665725F623D00005B424F4F545F43463C
:1042C000475D2052656164204F4B3A2061637469F9
:1042D00076653D2563207665725F613D25732076A6
:1042E00065725F623D25730D0A0000002DE9F04103
:1042F000ADF53A7D044600784138022824BF4120BC
:10430000208045F29E00C0F60D0003F059FF45F2F3
:104310002E11C0F60D0124A80A2204F08FFF30B13F
:1043200016A016F015F80DF53A7DBDE8F0810DF1F7
:104330000C08251D04F1140617A2404680212346CF
:104340000095019612F0DCFD24AF024623AB3846FF
:10435000414605F0F1FF384605F00EFE384603F001
:104360002DFB2178239F14A02A463346009712F094
:10437000B7FD0DF53A7DBDE8F08100BF5B424F4FC0
:10438000545F4346475D205772697465206F7065BE
:104390006E206661696C0D006163746976653D2508
:1043A000730A7665725F613D25730A7665725F6296
:1043B0003D25730A000000005B424F4F545F4346A7
:1043C000475D205772697465204F4B3A20616374D2
:1043D0006976653D2563207665725F613D257320B2
:1043E0007665725F623D2573202825752062797499
:1043F0006573290D0A00000070B504460020E070C6
:104400004FF0FF30A06320460FF03EFD00281CBF98
:10441000042070BDB4F83A624AF65520864204F191
:104420003C0509D145F65471C0F60D0128460B2212
:10443000FBF76AFF002861D02878E838032856D8AF
:10444000022854D04AF65520864207D104F18E0046
:104450002BA10822FBF758FF002846D0B4F84700EC
:10446000B0F5007F43D145F2555101EA5001401AA1
:1044700043F2333101EA90020840104400EB10107F
:1044800000F4706100F00F0000EB112001282ED81D
:1044900094F8490058B3552101EA5001401A3321DC
:1044A00001EA900100F03300084400EB101000F026
:1044B0000F0001281BD8B4F84A00C0B194F84C0092
:1044C0000138012813D8B4F84D0080B1B4F84F007A
:1044D0007F2807D894F85E0094F85F10000440EA43
:1044E000016020B1B4F8520008B1002070BD4AF656
:1044F000552103208E4208BF022070BD012070BDEF
:1045000046415433322020200000000070B5CAB06C
:1045100047F62404C1F20004002047F2704545F23A
:10452000224202AE84F8010184F81801C4F8140193
:10453000C1F20005C0F60D0230464FF480712346EB
:10454000009512F0DDFC44A0294612F0C9FC4AF2A5
:10455000C005C1F2000546A031462A464FF400636B
:1045600006F036FD002875D045F29211C0F60D0117
:104570002846FBF782FE002818BF051D42A02946E9
:1045800012F0AEFC45F22631C0F60D0142AA2846D3
:10459000102306F099FE08B39DF8080100F0DF0033
:1045A00054281BD1012004F5817645F25C3184F852
:1045B0000101C0F60D0128463246102306F084FEA4
:1045C00045F24731C0F60D0142AA2846202306F0E5
:1045D0007BFE40B142A8FBF7C9FE05E030A015F014
:1045E000B7FE4AB070BD002045F23731C4F814015F
:1045F000C0F60D0142AA2846102306F065FE9DF87C
:10460000081101F0DF015439B1FA81F1490908407C
:10461000012884F8180110D145F25131C0F60D017E
:1046200042AA2846202306F04FFE18B142A8FBF705
:104630009DFE00E00020C4F81C01D4F8143194F869
:10464000185147F270411BA0C1F20001324600959B
:1046500012F046FC4AB070BD5B46575D206368654A
:10466000636B3A207665723D25730D0A00000000E9
:104670002F6170692F6F74612F636865636B5F666C
:1046800069726D77617265005B46575D20626F6489
:10469000793A205B252E323030735D0D0A00000020
:1046A0005B46575D20757020746F20646174650DE2
:1046B000000000005B46575D202573202D3E20251D
:1046C000732028256C75422C2070617463683D2529
:1046D00064290D0A000000002DE9F041CAB047F638
:1046E0002405C1F20005002045F2224202AF85F800
:1046F000200185F87801C5F8740105F1F004C0F6D1
:104700000D0238464FF480712B46009412F0F8FBEE
:1047100048A0214612F0E4FB4AF2C006C1F20006AE
:104720004AA0394632464FF4006306F051FC002897
:104730007DD045F29211C0F60D013046FBF79DFD8C
:10474000002818BF061D47A0314612F0C9FB45F2EC
:104750002631C0F60D0142AA3046102306F0B4FD02
:1047600048B39DF8080100F0DF00542823D1012050
:1047700005F2211845F25C3185F82001C0F60D01E3
:1047800030464246102306F09FFD05F2311740A146
:1047900030463A46402306F097FD45F24731C0F6D1
:1047A0000D0142AA3046202306F08EFD48B142A8F2
:1047B000FBF7DCFD06E031A015F0CAFD4AB0BDE80C
:1047C000F081002045F23731C5F87401C0F60D01C3
:1047D00042AA3046102306F077FD9DF8081101F03B
:1047E000DF015439B1FA81F149090840012885F8FF
:1047F000780110D145F25131C0F60D0142AA304680
:10480000202306F061FD18B142A8FBF7AFFD00E0E0
:104810000020C5F87C01D5F8740195F87861009006
:104820001EA0214642463B46019612F059FB4AB073
:10483000BDE8F0815B4D445D20636865636B3A20A1
:104840007665723D25730D0A000000002F617069C6
:104850002F6F74612F636865636B5F6D6F64656C48
:10486000000000005B4D445D20626F64793A205B7C
:10487000252E323030735D0D0A0000005B4D445D23
:1048800020757020746F20646174650D0000000055
:104890006D6F64656C5F6E616D6500005B4D445DBE
:1048A000202573202D3E202573202825732C2025BC
:1048B0006C75422C2070617463683D2564290D0A73
:1048C000000000002DE9F04F81B004688846824660
:1048D00039B15046414606F081F902280CD2012731
:1048E00018E1D4F81490B9F1000F0ED0E0698145B9
:1048F00028BF4FF001090AE00746013056D0E069B1
:10490000C1468742C0F0068101E04FF00109A0696D
:10491000A0B12078042813D1E069616BA9F1020BE2
:1049200002380022834528BF934601EB1B31204605
:104930000FF0AAFAE8B34FF0FF379AE00027E9E05A
:10494000C14518D1E06909F10105854228BF02255A
:104950005046294606F042F90746013000F0DA8059
:1049600057B1012F00F0D6806069022803D3E169B6
:10497000884238BF81460025002D4FD02046294669
:104980004FF0FF320FF096FFB8F1000F05D020B9BD
:10499000204641462A460FF08DFF2F46002858D06A
:1049A0000127012808BF4FF0FF37B3E04FF0FF3772
:1049B000B0E001235D46E26905F00701C5F3C800D8
:1049C00003FA01F7911E2B464FF0000C221892F8C3
:1049D0003C205D1C02EA07068D424FF0000232BF08
:1049E0007A004FF40070654637063FD05D453FD0F2
:1049F000130617462B46E9D101300127B0F5007F99
:104A00002B46E3D3606B00EB153120460FF03CFAE8
:104A1000012300284FF0FF37CDD02AE04D4600BFDC
:104A2000E0690135854228BF022502D3B9F1020FA2
:104A30006FD35046294606F0D1F80746013069D0B9
:104A4000002F9BD0012F65D04D454FF00007E7D1D7
:104A500060E0D4E906016761023988429CBF0138F1
:104A6000A061207940F00100207153E09F1C00E01C
:104A70000027781C02284DD3606BBD1E00EB15315A
:104A800020460FF001FA00284FF0010010D1C5F3C5
:104A9000C801214405F0070311F83C2F984010424B
:104AA00001D0022004E0504008700120E070002096
:104AB000022804D0012804D14FF0FF372AE0012753
:104AC00028E0B8F1000F0FD09AF8071002290ED194
:104AD00009F101018F420AD0DAF80810A9EB0101AF
:104AE000CAF81810032100E002218AF807109AF88A
:104AF000071002293FF452AF08F10102DAF81C1046
:104B000097420BD14A1C002908BF0222CAF81C2078
:104B100044E70027384601B0BDE8F08F002904BF04
:104B20000120CAF81C00504641463A4605F02EFEC8
:104B300000287FF433AF0121CAF81C102EE70000D3
:104B40002DE9F04F87B017468A4606AA01211D4677
:104B50000646012402F0E8F9002840F0AD80DDF8B7
:104B600018B008244FF63F4000960497E1B2BBFB13
:104B7000F1F1814203D364002106F7D1FF242846D6
:104B80004FF400710195FBF76DFBBBF1400FC0F0D6
:104B9000858048F21F50C5F2EB10ABFB00014809BD
:104BA0000390E0B2029001983F2300F2BF124FF051
:104BB000000800BF5AF828005C466428039918BF13
:104BC00000FB01F4652828BF0446E018ABEB03099D
:104BD00028BF4C46584588BF4C46002C5ED044F256
:104BE0000517C0F21047A3FB0705581B05EB500043
:104BF0004009A0EB8015D3714FEA13291E0C190E42
:104C00001D442344B3F1010E91724FEA142105951E
:104C10005D46D346AEFB07CA11734FEA1441029FAB
:104C200051734FEA146156729173B0FBF7F1049E11
:104C300001FB1700D670059E4FF0C00C06F101066F
:104C400010700CEA910040EA06005070AEEB0A00CA
:104C50000AEB50004FEA50109170B0FBF7F14FF0A3
:104C60000006D47246F1000401FB1706A0EB801089
:104C70007044013016710CEA91063043B8F1020F0E
:104C800082F808905071917108D83CB1DA46AB4671
:104C900008F101089D4202F110028BD801994AF6F1
:104CA0005520A1F8FE0100980022012302F09AF994
:104CB0000446002818BF0124204607B0BDE8F08F45
:104CC00010B504460420FDF767FB40F2C070C2F245
:104CD0000000046010BD000070B548F68901C8F6F8
:104CE0008801A0FB011222F00F034EF21801A3EB82
:104CF000121340F2C07CCEF20001A0EB430E1E283E
:104D0000C2F2000C17D3DCF80000130947F230524E
:104D1000504300BF51F8042C0D6800240E68B542C2
:104D2000FCD02C44A41BB54298BF144484423546A1
:104D3000F4D3013BEED1BEF1000F08BF70BD51F8B6
:104D4000040CDCF800204FF47A730EFB02F20E68BC
:104D50005A4300230D68AE42FCD033445B1BAE4285
:104D600098BF034493422E46F4D370BD80B54EF2F3
:104D7000180140F2C072CEF20001C2F2000251F8F6
:104D800004CC1268002302FB00FE08680A68904207
:104D9000FCD003449B1A904298BF6344734510466D
:104DA00028BF80BDF2E70000ADF6D87D4EF608556D
:104DB000CEF2000500247B46C0F60A042868A34210
:104DC00038BFA4F5C024A04206D029680FF634509D
:104DD000224612F085F82C6043F6440B42F600465A
:104DE0004FF4E130C4F2020BC4F201064FF6FF7437
:104DF000FFF732F94FF4E13010F0C6FF0020002732
:104E00000FF088F847F2AC40C1F2000062B60760CC
:104E100040F2A840C2F20000046044F61E70C0F6E2
:104E20000D0015F095FA0FF610500FF624510FF6FD
:104E30002C5212F055F829680FF62C5012F050F849
:104E40004FF6FF7006F06EFB0FF634501021CDE9DF
:104E500000100A201E21DC22102302970DF046FFCD
:104E6000DBF8000040F40060CBF8000037607760AA
:104E7000DBF8000020F40060CBF800006420FFF7AE
:104E80002BFFDBF8000040F40060CBF80000C820E6
:104E9000FFF722FF44F677650124C0F60D0500BF39
:104EA0002846214612F01CF80FF060FE70B14FF456
:104EB00096703760FFF710FF0134042CF0D144F6F0
:104EC000DF60C0F60D0015F043FA28E000204FF433
:104ED0000F710FF091F841F69805C2F200052860B5
:104EE000B8B145F28501C0F60D01012204F056F972
:104EF00078B145F28504C0F60D0420460021002259
:104F00004FF4007303F042FA28682146012204F0AE
:104F100045F945F29E00C0F60D0003F051F90FF07F
:104F2000E9FA47F62404C1F200043120208145F655
:104F3000327045F25341C3F23000C3F24D31C4E93F
:104F4000001047F24620C6F265502062002084F827
:104F5000240043F66C00C3F638004FF03831C4E942
:104F600018013820A4F868000FF034FB04F1F000B9
:104F700010210D900DF03CFF0DF150094846242101
:104F8000FBF770F94120ADF8500042F63160C2F6EF
:104F9000306015903020ADF8580042F63060C0F215
:104FA0003000199045F29E00C0F60D0009F104058D
:104FB00009F1140A03F004F945F22E11C0F60D01AF
:104FC0000DF5E660012204F039F9D0B965AF384635
:104FD0004FF48071FBF746F90DF5E66625AB3046D8
:104FE0003946FF2204F0B0FB304602F0E7FC259979
:104FF00004290DD844F65060C0F60D0011F070FF82
:105000007AE044F64070C0F60D0015F0A1F973E0A7
:1050100045F29601C0F60D0165A8FBF72EF948B1DF
:10502000C079A0F1410101299EBF8DF850000020F8
:105030008DF8510045F28801C0F60D0165A8FBF717
:105040001CF9F8B100F1060840460A21FBF733F9D4
:1050500018B940460D21FBF72EF918B94046FBF769
:1050600034F94044A0EB0807012F0BDB0F2FA8BF3A
:105070000F27284641463A46FBF7DBF809EB0700C5
:105080000021017145F28F01C0F60D0165A8FBF703
:10509000F4F8F8B100F1060840460A21FBF70BF9D5
:1050A00018B940460D21FBF706F918B94046FBF741
:1050B0000CF94044A0EB0807012F0BDB0F2FA8BF12
:1050C0000F27504641463A46FBF7B3F809EB070075
:1050D000002101759DF850002A464138022824BF5E
:1050E0004120ADF850009DF8501044F69560C0F690
:1050F0000D00534611F0F4FE9DF8500047F2704643
:10510000C1F2000645F27712422808BF5546C0F6A4
:105110000D02304610212B46102411F0F1FE47F607
:10512000240A44F6C760C1F2000A0D9BC0F60D00C8
:105130005146324611F0D4FE45F250010020C0F62F
:105140000D01CDE901100A203C21DC22102300943E
:105150000DF0CCFD11F094FD0746B8B344F69D70F8
:10516000C0F60D004FF4FC65CDE900400A20502147
:10517000DC22102302950DF0B9FD0FF051FF9AF8D3
:10518000000190B344F6A670C0F60D001021CDE9E1
:1051900000100A206421DC22102302950DF0A6FDE8
:1051A0005BF8040C40F080504BF8040C47F2000010
:1051B000C4F20000016841F48071016042F65C00B5
:1051C000C4F200004FF05A3101600EE044F69070D6
:1051D000C0F60D004FF47846CDE900400A2050217A
:1051E000DC22102302960DF081FD4FF47A70FFF758
:1051F00073FD47F6606440F2C870C1F200044FF0DE
:10520000000BC2F2000084F800B080F800B0FBF799
:10521000FBFD139025A8043806901DA804380590BE
:105220000DF2E46045F274089FEDD78A9FEDD79A9E
:105230009FEDD7AA9FEDD7BA9FEDD7CA9FEDD7EACA
:105240009FEDD7FADFEDD78ADFEDD79ADFEDD7AA4A
:10525000011F1C30C0F60D084FF00109B7EE00DA4F
:1052600047F23056049103901DE040F25475C2F2AB
:10527000000595F82900002800F0288240F6B83093
:10528000FFF72AFD6878002840F0F9874FF0000BFF
:1052900084F800B040F2C870C2F2000080F800B09C
:1052A0003220FFF719FD9AF8000160B1FBF7ACFD61
:1052B0001399401A4EF66021884204D3FBF7A4FDEF
:1052C00013900FF0EBFDF80715D1FBF79DFD139937
:1052D000401AB0420FD3FBF797FD139011F0D0FCAA
:1052E0000028074618BF0FF09BFE40F2C870C2F2BC
:1052F000000080F800B0002006F0AAF82178072905
:10530000C4D88346DFE811F00800BD0034004D002A
:10531000860017012801540140F2C870C2F2000053
:10532000007838B90CF0CEFD40F2C870C2F200002F
:1053300080F80090BBF1020F00F0D681BBF1010FA5
:1053400040F03682F8074FF0000B06D111F098FCC0
:105350000028074618BF0FF063FEF80700F02B8205
:105360009AF80001002800F0268284F8009091E766
:1053700040F2C870C2F20000007838B90DF070F841
:1053800040F2C870C2F2000080F80090BBF1010F3B
:1053900040F08B819AF80101002800F086810320FB
:1053A00002E240F2C870C2F20000007838B90CF096
:1053B000DFFC40F2C870C2F2000080F80090BBF140
:1053C000030F00F0EF81BBF1020F00F08F81BBF102
:1053D000010F40F0ED8140F25475C2F2000545F234
:1053E0007712E81C0AF581731021C0F60D02A5F8AA
:1053F000019011F085FDDAF814014FF0000B68629E
:105400009DF8500085F813B041284FF0410008BFC7
:10541000422031E040F2C870C2F20000007838B992
:105420000CF028FE40F2C870C2F2000080F8009034
:10543000BBF1030F00F0B681BBF1020F00F08381D6
:10544000BBF1010F40F0B48140F25475C2F2000587
:1054500045F277124FF0000BE81C0AF221131021DD
:10546000C0F60D02A5F801B011F04AFDDAF874019A
:1054700085F813B068622D2085F82800052020707B
:1054800008E74FF6FF7006F04DF845F23100C0F620
:105490000D00102401900A205021DC2210234FF02F
:1054A000000B0094CDF808B00DF020FCFFF72EF8AB
:1054B00045F22200C0F60D0001900A206E21DC2288
:1054C00010230094CDF808B00DF010FCFFF704F99C
:1054D0009AF801019AF82011084340F0EF804FF646
:1054E000FF7006F01FF844F6D270C0F60D00019070
:1054F0000A205021DC2210234FF4FC66009402960F
:1055000047F230560DF0F2FBCDE900480A206E213B
:10551000DC22102348F2304402940DF0E7FB00BF78
:105520000020002405F094FF002840F0C8803220BD
:10553000FFF7D2FBF4E70CF05FFB40F25475C2F2C8
:1055400000056978A878002900F0C580002818BFF8
:1055500001200FF0CBFFC3E040F2C870C2F20000A0
:10556000007800287FF481AE40F25471C2F200014D
:1055700091F829002A310CF01DFF40F2C870C2F2E8
:10558000000080F8009070E6003C1CC6003C1C4601
:10559000CDCCCC3D0AD7233C0000000000001543D1
:1055A0000AD7A33C0AD7A33BCDCC4C3D0000B44264
:1055B00040F2C870C2F20000007838B90CF0FEFD6D
:1055C00040F2C870C2F2000080F80090BBF1020FF8
:1055D0003FF45CAEBBF1010F40F0EA8045F6307657
:1055E000C0F60D060F9796E88F000DF5E665CDF82D
:1055F000880FB08A0DF68874ADF89C0FB07DCDF899
:105600008C1FCDF8902F8DF89E0F28462146012241
:10561000CDF8943FCDF8987F03F010FE002800F0FD
:10562000FB804FF6FF7005F07DFF44F6C170C0F6B9
:105630000D00102601900A205021DC2210234FF487
:105640007847009602970DF051FBCDE900640A20DF
:105650006921DC22102348F2304402940DF046FB0D
:105660000A208C21DC221023029447F66064009605
:105670004FF00109CDF80480C1F200040DF036FBB3
:10568000002005F0E5FE0F9F00284FF0000B47F2C9
:1056900030567FF4FFAD00BF3220FFF71DFB002026
:1056A00005F0D6FE0028F7D0F4E5BBF1020F71D16A
:1056B0009AF8200100286DD0042075E0022447F6F6
:1056C0006060C1F2000004700446E3E5BBF1000F26
:1056D0007FF4DCAD6CE0002818BF01200FF0CAFF9A
:1056E00085F8290006205FE007205DE09AF81801A0
:1056F000002854D040F2547545F27716C2F20005E6
:1057000040F20110C0F60D06A5F80100E81C0AF5EC
:1057100081731021324611F0F3FB47F2704305F11B
:10572000130010213246C1F2000347F2305611F047
:10573000E7FBDAF81C019DF850106862412041290E
:1057400008BF422022E09AF8780140B340F2547535
:1057500045F27716C2F200054FF48070C0F60D06D0
:10576000A5F80100E81C0AF221131021324611F0BD
:10577000C7FB0D9B05F113001021324647F230564E
:1057800011F0BEFBDAF87C0168622D2085F8280054
:10579000052009E0BBF1030F3FF478AD08E0BBF151
:1057A000030F05D1022000BF20704FF0000B71E500
:1057B0004FF0000B74E54FF6FF7005F0B3FE44F6B2
:1057C000E270C0F60D004FF0100801900A20502141
:1057D000DC2210234FF47844CDF8008002940DF0C1
:1057E00085FACDF8008045F27408C0F60D080A204D
:1057F0006E21DC22102348F23044CDF8048002945C
:105800000DF074FA002005F023FE002840F04081DE
:105810003220FFF761FAF5E7284602F0CFF845F2AB
:105820004E14C0F60D0428462146012203F006FD61
:10583000002842D04FF6FF7005F074FE44F6B170B8
:10584000C0F60D00102601900A205021DC22102302
:105850004FF47847009602970DF048FACDE90064BE
:105860000A206921DC22102348F2304402940DF012
:105870003DFA0A208C21DC221023029447F6606452
:1058800000964FF00109CDF80480C1F200040DF03C
:105890002DFA002005F0DCFD0F9F00284FF0000BD3
:1058A00047F230567FF4F6AC3220FFF715FA0020AD
:1058B00005F0CEFD0028F7D0ECE4284602F07EF893
:1058C0004FF6FF7005F02EFE45F26300C0F60D00A6
:1058D000102401900A205021DC2210234FF0000BED
:1058E0000094CDF808B00DF001FA0DF688700DF0B7
:1058F00079FB0F9F98B344F67D70C0F60D000094BD
:1059000001900A206E21DC2210234FF478441026E7
:1059100002940DF0EBF948F230440A208C21DC228D
:105920001023029447F6606400964FF00109CDF809
:105930000480C1F200040DF0D9F9002005F088FDC3
:10594000002847F230567FF4A5AC00BF3220FFF7A5
:10595000C3F9002005F07CFD0028F7D09AE445F259
:105960004000C0F60D0001900A206E21DC221023B9
:105970000094CDF808B00DF0B9F945F24E11284663
:10598000C0F60D0101F06CFF98B344F66B70C0F6E1
:105990000D00009401900A208C21DC2210234FF48A
:1059A0007844102602940DF0A1F90A20A521DC22EA
:1059B000102348F2304400964FF00109CDF80480DE
:1059C00002940DF093F9002005F042FD47F6606463
:1059D0000028C1F2000447F230567FF45BAC00BFF0
:1059E0003220FFF779F9002005F032FD0028F7D0CA
:1059F00050E44FF4FA70FFF76FF965A84FF4AA610D
:105A0000FAF730FC40F2A840C2F2000047F2AC4185
:105A10000268C1F20001C0F800B04FF6FF700D68D7
:105A20000992086000200021EF222523CDF800B064
:105A30000BF078FD45F2CF00C0F60D000190082074
:105A40000821DC22102340F2FF76009402960DF02C
:105A50004DF90A201C21E5221D2344F20826009658
:105A60000BF060FD002005F0F3FC022847F23056F1
:105A700014D10DF5E66001F0B5FE47F2AC40C1F27D
:105A80000000056040F2A8400999C2F200000160E0
:105A900047F66064C1F20004FFF7FCBB00200890E9
:105AA00000200E9000200A900A9801463F28D8BF97
:105AB0003F2101310C1A0A910DF5E66001F046FF15
:105AC0000E9B46F26101581CC6F2600150FB01F1C9
:105AD000CA1102EBD17165AA02EB83024FF4AA73DB
